{
  "_format": "hh3-artifact-1",
  "contractName": "RedPacket",
  "sourceName": "contracts/RedPacket.sol",
  "abi": [
    {
      "inputs": [
        {
          "internalType": "uint256",
          "name": "_count",
          "type": "uint256"
        }
      ],
      "stateMutability": "payable",
      "type": "constructor"
    },
    {
      "anonymous": false,
      "inputs": [
        {
          "indexed": true,
          "internalType": "address",
          "name": "user",
          "type": "address"
        },
        {
          "indexed": false,
          "internalType": "uint256",
          "name": "amount",
          "type": "uint256"
        }
      ],
      "name": "Grapped",
      "type": "event"
    },
    {
      "anonymous": false,
      "inputs": [
        {
          "indexed": true,
          "internalType": "address",
          "name": "owner",
          "type": "address"
        },
        {
          "indexed": false,
          "internalType": "uint256",
          "name": "amount",
          "type": "uint256"
        }
      ],
      "name": "Withdrawn",
      "type": "event"
    },
    {
      "inputs": [],
      "name": "count",
      "outputs": [
        {
          "internalType": "uint256",
          "name": "",
          "type": "uint256"
        }
      ],
      "stateMutability": "view",
      "type": "function"
    },
    {
      "inputs": [],
      "name": "getBalance",
      "outputs": [
        {
          "internalType": "uint256",
          "name": "",
          "type": "uint256"
        }
      ],
      "stateMutability": "view",
      "type": "function"
    },
    {
      "inputs": [],
      "name": "grap",
      "outputs": [],
      "stateMutability": "nonpayable",
      "type": "function"
    },
    {
      "inputs": [
        {
          "internalType": "address",
          "name": "",
          "type": "address"
        }
      ],
      "name": "hasGrap",
      "outputs": [
        {
          "internalType": "bool",
          "name": "",
          "type": "bool"
        }
      ],
      "stateMutability": "view",
      "type": "function"
    },
    {
      "inputs": [],
      "name": "owner",
      "outputs": [
        {
          "internalType": "address",
          "name": "",
          "type": "address"
        }
      ],
      "stateMutability": "view",
      "type": "function"
    },
    {
      "inputs": [],
      "name": "totalAmount",
      "outputs": [
        {
          "internalType": "uint256",
          "name": "",
          "type": "uint256"
        }
      ],
      "stateMutability": "view",
      "type": "function"
    },
    {
      "inputs": [],
      "name": "withdraw",
      "outputs": [],
      "stateMutability": "payable",
      "type": "function"
    }
  ],
  "bytecode": "0x60806040526040516104d63803806104d6833981016040819052602091608e565b5f341160725760405162461bcd60e51b815260206004820152601660248201527f56616c7565206d75737420626520706f73697469766500000000000000000000604482015260640160405180910390fd5b5f55600180546001600160a01b031916331790553460025560a4565b5f60208284031215609d575f5ffd5b5051919050565b610425806100b15f395ff3fe60806040526004361061006e575f3560e01c80633ccfd60b1161004c5780633ccfd60b146100c05780638da5cb5b146100ca578063912b7b2414610101578063fc965d521461013f575f5ffd5b806306661abd1461007257806312065fe0146100995780631a39d8ef146100ab575b5f5ffd5b34801561007d575f5ffd5b506100865f5481565b6040519081526020015b60405180910390f35b3480156100a4575f5ffd5b5047610086565b3480156100b6575f5ffd5b5061008660025481565b6100c8610153565b005b3480156100d5575f5ffd5b506001546100e9906001600160a01b031681565b6040516001600160a01b039091168152602001610090565b34801561010c575f5ffd5b5061012f61011b366004610361565b60036020525f908152604090205460ff1681565b6040519015158152602001610090565b34801561014a575f5ffd5b506100c8610203565b6001546001600160a01b0316331461019e5760405162461bcd60e51b81526020600482015260096024820152682737ba1037bbb732b960b91b60448201526064015b60405180910390fd5b604051478082529033907f7084f5476618d8e60b11ef0d7d3f06914655adb8793e28ff7f018d4c76d505d59060200160405180910390a2604051339082156108fc029083905f818181858888f193505050501580156101ff573d5f5f3e3d5ffd5b5050565b5f5f54116102455760405162461bcd60e51b815260206004820152600f60248201526e139bc81c1858dad95d1cc81b19599d608a1b6044820152606401610195565b335f9081526003602052604090205460ff16156102965760405162461bcd60e51b815260206004820152600f60248201526e105b1c9958591e4818db185a5b5959608a1b6044820152606401610195565b5f5f546001036102a957506002546102bb565b5f546002546102b891906103a2565b90505b335f908152600360205260408120805460ff19166001179055600280548392906102e69084906103c1565b90915550505f805490806102f9836103da565b9091555050604051339082156108fc029083905f818181858888f19350505050158015610328573d5f5f3e3d5ffd5b5060405181815233907ffbed4753bf7218005d8821eb8750f989e7d7033c7ec25934d1f32804860e69ac9060200160405180910390a250565b5f60208284031215610371575f5ffd5b81356001600160a01b0381168114610387575f5ffd5b9392505050565b634e487b7160e01b5f52601160045260245ffd5b5f826103bc57634e487b7160e01b5f52601260045260245ffd5b500490565b818103818111156103d4576103d461038e565b92915050565b5f816103e8576103e861038e565b505f19019056fea2646970667358221220e4f5b9b87821a0fb1f098e1a85eb496cbf4ee29a953792ccf1584c27ae2efefb64736f6c634300081c0033",
  "linkReferences": {},
  "deployedLinkReferences": {},
  "immutableReferences": {},
  "inputSourceName": "project/contracts/RedPacket.sol",
  "buildInfoId": "solc-0_8_28-d5969ea798b511ad6de3066cabb587951930a11c"
}